:100000000C942A000C9434000C9434000C943400AA
:100010000C9434000C9434000C9434000C94340090
:100020000C9434000C9434000C9434000C94340080
:100030000C9434000C9434000C9434000C94340070
:100040000C9434000C9434000C9434000C94340060
:100050000C94340011241FBECFE5D4E0DEBFCDBF29
:100060000E9436000C945F000C940000CF93DF9345
:1000700000D000D0CDB7DEB789E683BFBB9A8FEF43
:10008000898380E88A838BE48B831C8280E020E074
:10009000E1E0F0E0EC0FFD1FE80FF11D90819CBF47
:1000A000AB9A3FE34DE093E0315040409040E1F7A0
:1000B00000C000008F5F843058F3822FE9CFF8949E
:0200C000FFCF70
:00000001FF
